{
  "_format": "hh-sol-artifact-1",
  "contractName": "TokenFarm",
  "sourceName": "contracts/TokenFarm.sol",
  "abi": [
    {
      "inputs": [
        {
          "internalType": "address",
          "name": "_dappToken",
          "type": "address"
        },
        {
          "internalType": "address",
          "name": "_lpToken",
          "type": "address"
        }
      ],
      "stateMutability": "nonpayable",
      "type": "constructor"
    },
    {
      "inputs": [
        {
          "internalType": "address",
          "name": "owner",
          "type": "address"
        }
      ],
      "name": "OwnableInvalidOwner",
      "type": "error"
    },
    {
      "inputs": [
        {
          "internalType": "address",
          "name": "account",
          "type": "address"
        }
      ],
      "name": "OwnableUnauthorizedAccount",
      "type": "error"
    },
    {
      "inputs": [],
      "name": "ReentrancyGuardReentrantCall",
      "type": "error"
    },
    {
      "anonymous": false,
      "inputs": [
        {
          "indexed": true,
          "internalType": "address",
          "name": "previousOwner",
          "type": "address"
        },
        {
          "indexed": true,
          "internalType": "address",
          "name": "newOwner",
          "type": "address"
        }
      ],
      "name": "OwnershipTransferred",
      "type": "event"
    },
    {
      "anonymous": false,
      "inputs": [
        {
          "indexed": true,
          "internalType": "address",
          "name": "user",
          "type": "address"
        },
        {
          "indexed": false,
          "internalType": "uint256",
          "name": "reward",
          "type": "uint256"
        }
      ],
      "name": "RewardPaid",
      "type": "event"
    },
    {
      "anonymous": false,
      "inputs": [
        {
          "indexed": true,
          "internalType": "address",
          "name": "user",
          "type": "address"
        },
        {
          "indexed": false,
          "internalType": "uint256",
          "name": "amount",
          "type": "uint256"
        }
      ],
      "name": "Staked",
      "type": "event"
    },
    {
      "anonymous": false,
      "inputs": [
        {
          "indexed": true,
          "internalType": "address",
          "name": "user",
          "type": "address"
        },
        {
          "indexed": false,
          "internalType": "uint256",
          "name": "amount",
          "type": "uint256"
        }
      ],
      "name": "Withdrawn",
      "type": "event"
    },
    {
      "inputs": [],
      "name": "dappToken",
      "outputs": [
        {
          "internalType": "contract IERC20",
          "name": "",
          "type": "address"
        }
      ],
      "stateMutability": "view",
      "type": "function"
    },
    {
      "inputs": [
        {
          "internalType": "address",
          "name": "account",
          "type": "address"
        }
      ],
      "name": "earned",
      "outputs": [
        {
          "internalType": "uint256",
          "name": "",
          "type": "uint256"
        }
      ],
      "stateMutability": "view",
      "type": "function"
    },
    {
      "inputs": [],
      "name": "exit",
      "outputs": [],
      "stateMutability": "nonpayable",
      "type": "function"
    },
    {
      "inputs": [],
      "name": "getReward",
      "outputs": [],
      "stateMutability": "nonpayable",
      "type": "function"
    },
    {
      "inputs": [],
      "name": "lastUpdateTime",
      "outputs": [
        {
          "internalType": "uint256",
          "name": "",
          "type": "uint256"
        }
      ],
      "stateMutability": "view",
      "type": "function"
    },
    {
      "inputs": [],
      "name": "lpToken",
      "outputs": [
        {
          "internalType": "contract IERC20",
          "name": "",
          "type": "address"
        }
      ],
      "stateMutability": "view",
      "type": "function"
    },
    {
      "inputs": [],
      "name": "owner",
      "outputs": [
        {
          "internalType": "address",
          "name": "",
          "type": "address"
        }
      ],
      "stateMutability": "view",
      "type": "function"
    },
    {
      "inputs": [],
      "name": "renounceOwnership",
      "outputs": [],
      "stateMutability": "nonpayable",
      "type": "function"
    },
    {
      "inputs": [],
      "name": "rewardPerToken",
      "outputs": [
        {
          "internalType": "uint256",
          "name": "",
          "type": "uint256"
        }
      ],
      "stateMutability": "view",
      "type": "function"
    },
    {
      "inputs": [],
      "name": "rewardPerTokenStored",
      "outputs": [
        {
          "internalType": "uint256",
          "name": "",
          "type": "uint256"
        }
      ],
      "stateMutability": "view",
      "type": "function"
    },
    {
      "inputs": [],
      "name": "rewardRate",
      "outputs": [
        {
          "internalType": "uint256",
          "name": "",
          "type": "uint256"
        }
      ],
      "stateMutability": "view",
      "type": "function"
    },
    {
      "inputs": [
        {
          "internalType": "uint256",
          "name": "amount",
          "type": "uint256"
        }
      ],
      "name": "stake",
      "outputs": [],
      "stateMutability": "nonpayable",
      "type": "function"
    },
    {
      "inputs": [],
      "name": "totalStaked",
      "outputs": [
        {
          "internalType": "uint256",
          "name": "",
          "type": "uint256"
        }
      ],
      "stateMutability": "view",
      "type": "function"
    },
    {
      "inputs": [
        {
          "internalType": "address",
          "name": "newOwner",
          "type": "address"
        }
      ],
      "name": "transferOwnership",
      "outputs": [],
      "stateMutability": "nonpayable",
      "type": "function"
    },
    {
      "inputs": [
        {
          "internalType": "address",
          "name": "",
          "type": "address"
        }
      ],
      "name": "userStakeInfo",
      "outputs": [
        {
          "internalType": "uint256",
          "name": "stakedBalance",
          "type": "uint256"
        },
        {
          "internalType": "uint256",
          "name": "rewardPerTokenPaid",
          "type": "uint256"
        },
        {
          "internalType": "uint256",
          "name": "rewards",
          "type": "uint256"
        },
        {
          "internalType": "bool",
          "name": "hasStaked",
          "type": "bool"
        },
        {
          "internalType": "bool",
          "name": "isStaking",
          "type": "bool"
        }
      ],
      "stateMutability": "view",
      "type": "function"
    },
    {
      "inputs": [
        {
          "internalType": "uint256",
          "name": "amount",
          "type": "uint256"
        }
      ],
      "name": "withdraw",
      "outputs": [],
      "stateMutability": "nonpayable",
      "type": "function"
    }
  ],
  "bytecode": "0x6080604052670de0b6b3a76400006005553480156200001d57600080fd5b5060405162001b3a38038062001b3a833981810160405281019062000043919062000294565b336001600081905550600073ffffffffffffffffffffffffffffffffffffffff168173ffffffffffffffffffffffffffffffffffffffff1603620000c15760006040517f1e4fbdf7000000000000000000000000000000000000000000000000000000008152600401620000b89190620002ec565b60405180910390fd5b620000d2816200016460201b60201c565b5081600260006101000a81548173ffffffffffffffffffffffffffffffffffffffff021916908373ffffffffffffffffffffffffffffffffffffffff16021790555080600360006101000a81548173ffffffffffffffffffffffffffffffffffffffff021916908373ffffffffffffffffffffffffffffffffffffffff16021790555042600681905550505062000309565b6000600160009054906101000a900473ffffffffffffffffffffffffffffffffffffffff16905081600160006101000a81548173ffffffffffffffffffffffffffffffffffffffff021916908373ffffffffffffffffffffffffffffffffffffffff1602179055508173ffffffffffffffffffffffffffffffffffffffff168173ffffffffffffffffffffffffffffffffffffffff167f8be0079c531659141344cd1fd0a4f28419497f9722a3daafe3b4186f6b6457e060405160405180910390a35050565b600080fd5b600073ffffffffffffffffffffffffffffffffffffffff82169050919050565b60006200025c826200022f565b9050919050565b6200026e816200024f565b81146200027a57600080fd5b50565b6000815190506200028e8162000263565b92915050565b60008060408385031215620002ae57620002ad6200022a565b5b6000620002be858286016200027d565b9250506020620002d1858286016200027d565b9150509250929050565b620002e6816200024f565b82525050565b6000602082019050620003036000830184620002db565b92915050565b61182180620003196000396000f3fe608060405234801561001057600080fd5b50600436106100ff5760003560e01c8063817b1cd211610097578063cd3daf9d11610066578063cd3daf9d14610268578063df136d6514610286578063e9fad8ee146102a4578063f2fde38b146102ae576100ff565b8063817b1cd2146101f25780638da5cb5b14610210578063a694fc3a1461022e578063c8f33c911461024a576100ff565b80635eb186f8116100d35780635eb186f81461018e5780635fcbd285146101ac578063715018a6146101ca5780637b0a47ee146101d4576100ff565b80628cc262146101045780632e1a7d4d146101345780633d18b912146101505780634ead43271461015a575b600080fd5b61011e60048036038101906101199190611200565b6102ca565b60405161012b9190611246565b60405180910390f35b61014e6004803603810190610149919061128d565b61035e565b005b610158610753565b005b610174600480360381019061016f9190611200565b610aa7565b6040516101859594939291906112d5565b60405180910390f35b610196610af7565b6040516101a39190611387565b60405180910390f35b6101b4610b1d565b6040516101c19190611387565b60405180910390f35b6101d2610b43565b005b6101dc610b57565b6040516101e99190611246565b60405180910390f35b6101fa610b5d565b6040516102079190611246565b60405180910390f35b610218610b63565b60405161022591906113b1565b60405180910390f35b6102486004803603810190610243919061128d565b610b8d565b005b610252610eae565b60405161025f9190611246565b60405180910390f35b610270610eb4565b60405161027d9190611246565b60405180910390f35b61028e610f17565b60405161029b9190611246565b60405180910390f35b6102ac610f1d565b005b6102c860048036038101906102c39190611200565b610f72565b005b600080600860008473ffffffffffffffffffffffffffffffffffffffff1673ffffffffffffffffffffffffffffffffffffffff16815260200190815260200160002090508060020154670de0b6b3a76400008260010154610329610eb4565b61033391906113fb565b8360000154610342919061142f565b61034c91906114a0565b61035691906114d1565b915050919050565b610366610ff8565b3361036f610eb4565b60078190555042600681905550600073ffffffffffffffffffffffffffffffffffffffff168173ffffffffffffffffffffffffffffffffffffffff1614610489576000600860008373ffffffffffffffffffffffffffffffffffffffff1673ffffffffffffffffffffffffffffffffffffffff16815260200190815260200160002090506103fc826102ca565b8160020181905550600754816001018190555060008160020154111561043a5760018160030160006101000a81548160ff0219169083151502179055505b6000816000015411156104695760018160030160016101000a81548160ff021916908315150217905550610487565b60008160030160016101000a81548160ff0219169083151502179055505b505b600860003373ffffffffffffffffffffffffffffffffffffffff1673ffffffffffffffffffffffffffffffffffffffff16815260200190815260200160002060030160019054906101000a900460ff16610518576040517f08c379a000000000000000000000000000000000000000000000000000000000815260040161050f90611562565b60405180910390fd5b6000821161055b576040517f08c379a0000000000000000000000000000000000000000000000000000000008152600401610552906115ce565b60405180910390fd5b6000600860003373ffffffffffffffffffffffffffffffffffffffff1673ffffffffffffffffffffffffffffffffffffffff168152602001908152602001600020905082816000015410156105e5576040517f08c379a00000000000000000000000000000000000000000000000000000000081526004016105dc9061163a565b60405180910390fd5b82600460008282546105f791906113fb565b925050819055508281600001600082825461061291906113fb565b92505081905550600360009054906101000a900473ffffffffffffffffffffffffffffffffffffffff1673ffffffffffffffffffffffffffffffffffffffff1663a9059cbb33856040518363ffffffff1660e01b815260040161067692919061165a565b6020604051808303816000875af1158015610695573d6000803e3d6000fd5b505050506040513d601f19601f820116820180604052508101906106b991906116af565b6106f8576040517f08c379a00000000000000000000000000000000000000000000000000000000081526004016106ef90611728565b60405180910390fd5b3373ffffffffffffffffffffffffffffffffffffffff167f7084f5476618d8e60b11ef0d7d3f06914655adb8793e28ff7f018d4c76d505d58460405161073e9190611246565b60405180910390a2505061075061103e565b50565b61075b610ff8565b33610764610eb4565b60078190555042600681905550600073ffffffffffffffffffffffffffffffffffffffff168173ffffffffffffffffffffffffffffffffffffffff161461087e576000600860008373ffffffffffffffffffffffffffffffffffffffff1673ffffffffffffffffffffffffffffffffffffffff16815260200190815260200160002090506107f1826102ca565b8160020181905550600754816001018190555060008160020154111561082f5760018160030160006101000a81548160ff0219169083151502179055505b60008160000154111561085e5760018160030160016101000a81548160ff02191690831515021790555061087c565b60008160030160016101000a81548160ff0219169083151502179055505b505b600860003373ffffffffffffffffffffffffffffffffffffffff1673ffffffffffffffffffffffffffffffffffffffff16815260200190815260200160002060030160019054906101000a900460ff1661090d576040517f08c379a000000000000000000000000000000000000000000000000000000000815260040161090490611562565b60405180910390fd5b6000600860003373ffffffffffffffffffffffffffffffffffffffff1673ffffffffffffffffffffffffffffffffffffffff16815260200190815260200160002090506000816002015490506000811115610a9a5760008260020181905550600260009054906101000a900473ffffffffffffffffffffffffffffffffffffffff1673ffffffffffffffffffffffffffffffffffffffff1663a9059cbb33836040518363ffffffff1660e01b81526004016109c992919061165a565b6020604051808303816000875af11580156109e8573d6000803e3d6000fd5b505050506040513d601f19601f82011682018060405250810190610a0c91906116af565b610a4b576040517f08c379a0000000000000000000000000000000000000000000000000000000008152600401610a4290611728565b60405180910390fd5b3373ffffffffffffffffffffffffffffffffffffffff167fe2403640ba68fed3a2f88b7557551d1993f84b99bb10ff833f0cf8db0c5e048682604051610a919190611246565b60405180910390a25b505050610aa561103e565b565b60086020528060005260406000206000915090508060000154908060010154908060020154908060030160009054906101000a900460ff16908060030160019054906101000a900460ff16905085565b600260009054906101000a900473ffffffffffffffffffffffffffffffffffffffff1681565b600360009054906101000a900473ffffffffffffffffffffffffffffffffffffffff1681565b610b4b611048565b610b5560006110cf565b565b60055481565b60045481565b6000600160009054906101000a900473ffffffffffffffffffffffffffffffffffffffff16905090565b610b95610ff8565b33610b9e610eb4565b60078190555042600681905550600073ffffffffffffffffffffffffffffffffffffffff168173ffffffffffffffffffffffffffffffffffffffff1614610cb8576000600860008373ffffffffffffffffffffffffffffffffffffffff1673ffffffffffffffffffffffffffffffffffffffff1681526020019081526020016000209050610c2b826102ca565b81600201819055506007548160010181905550600081600201541115610c695760018160030160006101000a81548160ff0219169083151502179055505b600081600001541115610c985760018160030160016101000a81548160ff021916908315150217905550610cb6565b60008160030160016101000a81548160ff0219169083151502179055505b505b60008211610cfb576040517f08c379a0000000000000000000000000000000000000000000000000000000008152600401610cf290611794565b60405180910390fd5b6000600860003373ffffffffffffffffffffffffffffffffffffffff1673ffffffffffffffffffffffffffffffffffffffff16815260200190815260200160002090508260046000828254610d5091906114d1565b9250508190555082816000016000828254610d6b91906114d1565b92505081905550600360009054906101000a900473ffffffffffffffffffffffffffffffffffffffff1673ffffffffffffffffffffffffffffffffffffffff166323b872dd3330866040518463ffffffff1660e01b8152600401610dd1939291906117b4565b6020604051808303816000875af1158015610df0573d6000803e3d6000fd5b505050506040513d601f19601f82011682018060405250810190610e1491906116af565b610e53576040517f08c379a0000000000000000000000000000000000000000000000000000000008152600401610e4a90611728565b60405180910390fd5b3373ffffffffffffffffffffffffffffffffffffffff167f9e71bc8eea02a63969f509818f2dafb9254532904319f9dbda79b67bd34a5f3d84604051610e999190611246565b60405180910390a25050610eab61103e565b50565b60065481565b60008060045403610ec9576007549050610f14565b600454670de0b6b3a764000060055460065442610ee691906113fb565b610ef0919061142f565b610efa919061142f565b610f0491906114a0565b600754610f1191906114d1565b90505b90565b60075481565b610f68600860003373ffffffffffffffffffffffffffffffffffffffff1673ffffffffffffffffffffffffffffffffffffffff1681526020019081526020016000206000015461035e565b610f70610753565b565b610f7a611048565b600073ffffffffffffffffffffffffffffffffffffffff168173ffffffffffffffffffffffffffffffffffffffff1603610fec5760006040517f1e4fbdf7000000000000000000000000000000000000000000000000000000008152600401610fe391906113b1565b60405180910390fd5b610ff5816110cf565b50565b600260005403611034576040517f3ee5aeb500000000000000000000000000000000000000000000000000000000815260040160405180910390fd5b6002600081905550565b6001600081905550565b611050611195565b73ffffffffffffffffffffffffffffffffffffffff1661106e610b63565b73ffffffffffffffffffffffffffffffffffffffff16146110cd57611091611195565b6040517f118cdaa70000000000000000000000000000000000000000000000000000000081526004016110c491906113b1565b60405180910390fd5b565b6000600160009054906101000a900473ffffffffffffffffffffffffffffffffffffffff16905081600160006101000a81548173ffffffffffffffffffffffffffffffffffffffff021916908373ffffffffffffffffffffffffffffffffffffffff1602179055508173ffffffffffffffffffffffffffffffffffffffff168173ffffffffffffffffffffffffffffffffffffffff167f8be0079c531659141344cd1fd0a4f28419497f9722a3daafe3b4186f6b6457e060405160405180910390a35050565b600033905090565b600080fd5b600073ffffffffffffffffffffffffffffffffffffffff82169050919050565b60006111cd826111a2565b9050919050565b6111dd816111c2565b81146111e857600080fd5b50565b6000813590506111fa816111d4565b92915050565b6000602082840312156112165761121561119d565b5b6000611224848285016111eb565b91505092915050565b6000819050919050565b6112408161122d565b82525050565b600060208201905061125b6000830184611237565b92915050565b61126a8161122d565b811461127557600080fd5b50565b60008135905061128781611261565b92915050565b6000602082840312156112a3576112a261119d565b5b60006112b184828501611278565b91505092915050565b60008115159050919050565b6112cf816112ba565b82525050565b600060a0820190506112ea6000830188611237565b6112f76020830187611237565b6113046040830186611237565b61131160608301856112c6565b61131e60808301846112c6565b9695505050505050565b6000819050919050565b600061134d611348611343846111a2565b611328565b6111a2565b9050919050565b600061135f82611332565b9050919050565b600061137182611354565b9050919050565b61138181611366565b82525050565b600060208201905061139c6000830184611378565b92915050565b6113ab816111c2565b82525050565b60006020820190506113c660008301846113a2565b92915050565b7f4e487b7100000000000000000000000000000000000000000000000000000000600052601160045260246000fd5b60006114068261122d565b91506114118361122d565b9250828203905081811115611429576114286113cc565b5b92915050565b600061143a8261122d565b91506114458361122d565b92508282026114538161122d565b9150828204841483151761146a576114696113cc565b5b5092915050565b7f4e487b7100000000000000000000000000000000000000000000000000000000600052601260045260246000fd5b60006114ab8261122d565b91506114b68361122d565b9250826114c6576114c5611471565b5b828204905092915050565b60006114dc8261122d565b91506114e78361122d565b92508282019050808211156114ff576114fe6113cc565b5b92915050565b600082825260208201905092915050565b7f4e6f206573746173207374616b65616e646f0000000000000000000000000000600082015250565b600061154c601283611505565b915061155782611516565b602082019050919050565b6000602082019050818103600083015261157b8161153f565b9050919050565b7f43616e6e6f742077697468647261772030000000000000000000000000000000600082015250565b60006115b8601183611505565b91506115c382611582565b602082019050919050565b600060208201905081810360008301526115e7816115ab565b9050919050565b7f496e73756666696369656e742062616c616e6365000000000000000000000000600082015250565b6000611624601483611505565b915061162f826115ee565b602082019050919050565b6000602082019050818103600083015261165381611617565b9050919050565b600060408201905061166f60008301856113a2565b61167c6020830184611237565b9392505050565b61168c816112ba565b811461169757600080fd5b50565b6000815190506116a981611683565b92915050565b6000602082840312156116c5576116c461119d565b5b60006116d38482850161169a565b91505092915050565b7f5472616e73666572206661696c65640000000000000000000000000000000000600082015250565b6000611712600f83611505565b915061171d826116dc565b602082019050919050565b6000602082019050818103600083015261174181611705565b9050919050565b7f43616e6e6f74207374616b652030000000000000000000000000000000000000600082015250565b600061177e600e83611505565b915061178982611748565b602082019050919050565b600060208201905081810360008301526117ad81611771565b9050919050565b60006060820190506117c960008301866113a2565b6117d660208301856113a2565b6117e36040830184611237565b94935050505056fea264697066735822122074f12a0e0c835266fbdb588af5cf72af2eea97cdb1e52b90c8f97ec1b74b9dca64736f6c63430008140033",
  "linkReferences": {},
  "deployedLinkReferences": {}
}